:020000007B2B58
:0E000600213083120313FD00FD0B07280800B4
:100014000F3083120313FC004730FD00FD0B102842
:0A002400FC0B10280000000008008B
:06002E00000000000800C4
:100034007B15FB1F24280130F300F201F101F001CC
:08004400FA0DF20CFF30080078
:10004C0083120313B81B2C2887122D288716381BF4
:10005C003128071232280716B81A36288711372884
:10006C008715381A3B2807113C28071521184028FA
:10007C00071441280710871417208710B81948282F
:10008C0087124928871638194D2807124E2807164B
:10009C00B818522887115328871538185728071174
:1000AC005828071521185C2807145D280710871499
:1000BC0017208710211C64280A20652803200800BB
:0E00CC00F201F101F001F801F301003008002B
:0800DA00FA1FF21300300800C8
:1000E200FB14FB1F7B28FF30F300F200F100F0004D
:0800F200FA0DF20CFF300800CA
:0600FA00FB15FF300800B9
:10010000831203137408003A031D8928FF30F0009E
:10011000992883120313F8010830FC00700DF80DC4
:100120007408F80203189628F8070310F00DFC0B6A
:040130008E2808000D
:100134000E3083120313FD00FD0B9E2800000800FF
:100144007B14FB1FAD28F201FA1FFF30F200F1000F
:0A015400F000FA0DF20CFF30080075
:10015E007C18E528FC18B6287C190429AF28A001C4
:10016E007208031DD6287108F2007008F100780895
:10017E00F000F801A0157208031DD6287108F200D0
:10018E007008F100F001A01120167208031DD62888
:10019E007108F200F101A01572080319F828200861
:1001AE00F302031D031CFC280310F21BE528F80DB7
:1001BE00F00DF10DF20DF30BDC28FC287B1B701CEF
:1001CE000029F81F0029F00A0319F10A0319F20A8F
:1001DE00031D0029F20CF10CF00CF30A031904298B
:1001EE0000290130FC00662007290230FC001A208D
:1001FE0007290430FC006D2007290830FC0071200F
:04020E0000000800E4
:100212008312031321103708B80026202114080086
:10022200831203137408003A031D2C297508003A3F
:10023200031D2C297608003A031D2C297708003A61
:10024200031D2C29FF30F000FF30F1007F30F20057
:10025200FF30F300C7298312031377080319BB2960
:1002620073080319BE29720876068039FA00F2175C
:10027200F617A0017208F8007108FC007008FD0072
:100282007408FD027508031C750FFC027608031C36
:10029200760FF802F801FC01FD01031C5729031037
:1002A200F20CF10CF00CF80C0130A0007708F3020C
:1002B200031C61297E302007F3070318C129662930
:1002C2007E302007F307031CC4291830FA07FD0DFE
:1002D200FC0DF80DF00DF10DF20DA00D7408F002F9
:1002E2007508031C750FF1027608031C760FF202E3
:1002F200760DA004201C7F297D148A297408F0073A
:1003020075080318750FF10776080318760AF207C5
:100312007D10FA031F307A05031D68297B1B7D1CA3
:10032200B1290310F00DF10DF20DA00D7408F002C9
:100332007508031C750FF1027608031C760FF20292
:10034200760D20040139FD070318FC0A0319F80A87
:10035200031DB129F80CFC0CFD0CF30A0319C12989
:10036200FA1FF8137808F2007C08F1007D08F0000B
:100372000030C62901307D20C62902306620C629F8
:0E03820004307120C62908301A20000008003F
:10039000831203133308013A031DD1298030B300BF
:1003A000E8293308023A031DD829C030B300E829F0
:1003B0003308033A031DDF299430B300E8293308DA
:1003C000043A031DE629D430B300E8298030B30095
:1003D0003403F0003308F0077008B30021147008EC
:1003E000B800262021103508B80026202114080066
:1003F000831203139F01C0309F0483161F179F179A
:1004000083123308F000F00D7010F00D7010F00D35
:10041000701070089F041F149A201F151F1D122AA8
:1004200000000E2A1F101E08F100F00183161E089E
:1004300070048312B4007108B5000030B5043408AC
:08044000F0003508F10008008E
:10044800831203137008F8007108F0007208F100B5
:100458007308F200F301FB01FC019E30F300FA017E
:080468000230FC00AF20080087
:10047000831203132230FC00F801F901FA01FB0199
:10048000FC0303196E2A0310FB0CFA0CF90CF80C90
:10049000F30CF20CF10CF00C031C402AFC030319C2
:1004A000602A7408F80775080318750FF9077608AD
:1004B0000318760FFA0777080318770FFB07442A0B
:1004C0007408F80775080318750FF90776080318FC
:0E04D000760FFA0777080318770FFB0708006E
:1004DE00831203133308013A031D782A8030B300C8
:1004EE008F2A3308023A031D7F2AC030B3008F2AA9
:1004FE003308033A031D862A9430B3008F2A33083B
:10050E00043A031D8D2AD430B3008F2A8030B300F5
:10051E003403F0003308F0077008B3007008B80019
:10052E0026202110B6013608350784000008003A4F
:10053E000319A92A3608350784000008B7000921D7
:08054E00B60A9A2A21140800E4
:1005560083160313871007100711871107128712D6
:1005660083128710071087120712871107110A20B6
:100576000A200A20871507158714172087100A20D6
:100586008714172087100A208714172087100A203F
:1005960007118714172087100A2087141720871041
:1005A600871187168714172087100A2087120715C8
:1005B60087141720871007118714172087100A2021
:1005C60087141720871007158714172087100A200D
:1005D6000711871417208710871607168715071522
:0C05E6008714172087100A202114080039
:1005F200FF3083120313A200FF30A300FF30A400D8
:10060200FF309F01C0309F0483161F179F1783126C
:040612001F140800A9
:10061600831203133408840020308000840A2030BB
:100626008000840A30308000840A8001840A023007
:100636003407B5003308003A0319372B0A30F400A3
:100646003308F00080207808F0003030F0073508D5
:100656008400700880000A30F4003308F00080201F
:0A0666007008B300B5031D2B080057
:1006700083120313FB01FC01FA0173080319652BB4
:10068000FA13F2178630F302F31B492B0319492B97
:10069000672BF309F30A08307302031C562BF3008F
:1006A000F20DF2017308031D03105D2B730803198B
:1006B0005D2B0310F20CF30B592B7B1B721C652B6B
:1006C000031C652BF20A03196C2BF1016F2B7B14B1
:1006D000FB1F722BF101722B0130FC00742B0030D8
:1006E000FC00742BFF30FC00FC080319782BA220BF
:0606F0007208F000080092
:1006F600AB220C30B80026200130B3000130B40024
:100706005430B0003D30B100B2013030B5006F2238
:10071600843083169F00F922B301F8217008A500E2
:100726007108A6000030F200F300F430F400013046
:10073600F500F601F701382224220030F400C0301B
:10074600F5007F30F6008830F70011217008A70009
:100756007108A8007208A9007308AA003823700857
:10076600AB007008B3002C30B4000B230130B3008B
:100776000330B4002C30B5006F220130B3000630D0
:10078600B400DF30B500C8210130B3000730B40033
:100796004330B500C8210630FB001330FC00AD30F5
:1007A600FD00FD0BD42BFC0BD42BFB0BD42B000034
:0607B60000008F2BDD2B7B
:02400E007A3BFB
:00000001FF
